{
  "_format": "hh-sol-artifact-1",
  "contractName": "DonationContract",
  "sourceName": "contracts/DonationContract.sol",
  "abi": [
    {
      "inputs": [],
      "stateMutability": "nonpayable",
      "type": "constructor"
    },
    {
      "anonymous": false,
      "inputs": [
        {
          "indexed": true,
          "internalType": "address",
          "name": "donor",
          "type": "address"
        },
        {
          "indexed": false,
          "internalType": "uint256",
          "name": "amount",
          "type": "uint256"
        }
      ],
      "name": "DonationReceived",
      "type": "event"
    },
    {
      "anonymous": false,
      "inputs": [
        {
          "indexed": false,
          "internalType": "uint256",
          "name": "amount",
          "type": "uint256"
        }
      ],
      "name": "FundsWithdrawn",
      "type": "event"
    },
    {
      "inputs": [],
      "name": "donate",
      "outputs": [],
      "stateMutability": "payable",
      "type": "function"
    },
    {
      "inputs": [
        {
          "internalType": "address",
          "name": "",
          "type": "address"
        }
      ],
      "name": "donations",
      "outputs": [
        {
          "internalType": "uint256",
          "name": "",
          "type": "uint256"
        }
      ],
      "stateMutability": "view",
      "type": "function"
    },
    {
      "inputs": [],
      "name": "owner",
      "outputs": [
        {
          "internalType": "address",
          "name": "",
          "type": "address"
        }
      ],
      "stateMutability": "view",
      "type": "function"
    },
    {
      "inputs": [],
      "name": "totalDonations",
      "outputs": [
        {
          "internalType": "uint256",
          "name": "",
          "type": "uint256"
        }
      ],
      "stateMutability": "view",
      "type": "function"
    },
    {
      "inputs": [],
      "name": "withdraw",
      "outputs": [],
      "stateMutability": "nonpayable",
      "type": "function"
    }
  ],
  "bytecode": "0x6080604052348015600f57600080fd5b50336000806101000a81548173ffffffffffffffffffffffffffffffffffffffff021916908373ffffffffffffffffffffffffffffffffffffffff1602179055506107ff8061005f6000396000f3fe60806040526004361061004a5760003560e01c80633ccfd60b1461004f5780638da5cb5b14610066578063cc6cb19a14610091578063de2ed893146100ce578063ed88c68e146100f9575b600080fd5b34801561005b57600080fd5b50610064610103565b005b34801561007257600080fd5b5061007b6102e1565b6040516100889190610466565b60405180910390f35b34801561009d57600080fd5b506100b860048036038101906100b391906104b2565b610305565b6040516100c591906104f8565b60405180910390f35b3480156100da57600080fd5b506100e361031d565b6040516100f091906104f8565b60405180910390f35b610101610323565b005b60008054906101000a900473ffffffffffffffffffffffffffffffffffffffff1673ffffffffffffffffffffffffffffffffffffffff163373ffffffffffffffffffffffffffffffffffffffff1614610191576040517f08c379a000000000000000000000000000000000000000000000000000000000815260040161018890610596565b60405180910390fd5b6000479050600081116101d9576040517f08c379a00000000000000000000000000000000000000000000000000000000081526004016101d090610602565b60405180910390fd5b60008060009054906101000a900473ffffffffffffffffffffffffffffffffffffffff1673ffffffffffffffffffffffffffffffffffffffff168260405161022090610653565b60006040518083038185875af1925050503d806000811461025d576040519150601f19603f3d011682016040523d82523d6000602084013e610262565b606091505b50509050806102a6576040517f08c379a000000000000000000000000000000000000000000000000000000000815260040161029d906106b4565b60405180910390fd5b7f4a37b25aab49761ecf63117fe82b98d750917451133cf797507bc9fb5b96044a826040516102d591906104f8565b60405180910390a15050565b60008054906101000a900473ffffffffffffffffffffffffffffffffffffffff1681565b60026020528060005260406000206000915090505481565b60015481565b60003411610366576040517f08c379a000000000000000000000000000000000000000000000000000000000815260040161035d90610746565b60405180910390fd5b34600260003373ffffffffffffffffffffffffffffffffffffffff1673ffffffffffffffffffffffffffffffffffffffff16815260200190815260200160002060008282546103b59190610795565b9250508190555034600160008282546103ce9190610795565b925050819055503373ffffffffffffffffffffffffffffffffffffffff167f264f630d9efa0d07053a31163641d9fcc0adafc9d9e76f1c37c2ce3a558d2c523460405161041b91906104f8565b60405180910390a2565b600073ffffffffffffffffffffffffffffffffffffffff82169050919050565b600061045082610425565b9050919050565b61046081610445565b82525050565b600060208201905061047b6000830184610457565b92915050565b600080fd5b61048f81610445565b811461049a57600080fd5b50565b6000813590506104ac81610486565b92915050565b6000602082840312156104c8576104c7610481565b5b60006104d68482850161049d565b91505092915050565b6000819050919050565b6104f2816104df565b82525050565b600060208201905061050d60008301846104e9565b92915050565b600082825260208201905092915050565b7f4f6e6c7920746865206f776e65722063616e2077697468647261772066756e6460008201527f7300000000000000000000000000000000000000000000000000000000000000602082015250565b6000610580602183610513565b915061058b82610524565b604082019050919050565b600060208201905081810360008301526105af81610573565b9050919050565b7f4e6f2066756e647320746f207769746864726177000000000000000000000000600082015250565b60006105ec601483610513565b91506105f7826105b6565b602082019050919050565b6000602082019050818103600083015261061b816105df565b9050919050565b600081905092915050565b50565b600061063d600083610622565b91506106488261062d565b600082019050919050565b600061065e82610630565b9150819050919050565b7f5472616e73666572206661696c65640000000000000000000000000000000000600082015250565b600061069e600f83610513565b91506106a982610668565b602082019050919050565b600060208201905081810360008301526106cd81610691565b9050919050565b7f446f6e6174696f6e206d7573742062652067726561746572207468616e207a6560008201527f726f000000000000000000000000000000000000000000000000000000000000602082015250565b6000610730602283610513565b915061073b826106d4565b604082019050919050565b6000602082019050818103600083015261075f81610723565b9050919050565b7f4e487b7100000000000000000000000000000000000000000000000000000000600052601160045260246000fd5b60006107a0826104df565b91506107ab836104df565b92508282019050808211156107c3576107c2610766565b5b9291505056fea26469706673582212207514a5adff208c2f2ab3bb10390b6e87878015d8caffa7c018b172bcb8d6aa0c64736f6c634300081c0033",
  "linkReferences": {},
  "deployedLinkReferences": {}
}